:020000040001F9
:10400000382F0020F540010007410100094101005F
:1040100000000000000000000000000000000000A0
:104020000000000000000000000000000B41010043
:1040300000000000000000000D4101000F410100E0
:104040001141010011410100114101001141010024
:104050001141010000000000F95B01001141010065
:104060001141010011410100114101001141010004
:1040700011410100114101001141010011410100F4
:1040800011410100C369010011410100114101000A
:10409000E5690100114101005F5801001141010073
:1040A000114101001141010000000000000000006A
:1040B0000000000000000000000000000000000000
:1040C0000348854603F08EFB004800472549010060
:1040D000382F0020401E00BF00BF00BF00BF00BF40
:1040E00000BF00BF00BF00BF00BF00BF00BFF1D1D5
:1040F00070470000074802680F210A430260064823
:10410000804706480047FEE7FEE7FEE7FEE7FEE7DA
:10411000FEE7000024050040C5410100C140010048
:1041200032483349086070473248008CC0B20128D9
:1041300012D13048808C0007000F00280CD12D4888
:10414000806AF0210840402806D12A48C06A084009
:10415000002801D1012070470020FCE72548008C91
:10416000C0B201282CD12348808C0007000F002802
:1041700026D12048806AF0210840002806D11D4839
:10418000C06A0840002801D1012070471948806AA0
:10419000F0210840102806D11648C06A08400028BF
:1041A00001D10120F1E71348806AF021084030284E
:1041B00006D11048C06A0840002801D10120E4E778
:1041C0000020E2E710B5FFF7C9FF002805D00A4834
:1041D0000A494860C8130A498861FFF7A5FF00280B
:1041E00002D001200749886010BD00000024F400BF
:1041F00000200020C00F00F0DFFF07C000050040D6
:10420000006C004000060040012001218140F84A76
:10421000D16000BF00F0E8FC04460D462A46214666
:10422000F448FFF7F1FF03F07DFA044600BF25468E
:10423000002D05D000BFF0A2E7212846FFF7E4FFDC
:1042400000BF00F0D1FC704738B50446204602F0AC
:10425000CEFF684603F054FA0546002D04D10098BD
:10426000002801D1FFF7EFFF38BDF8B50746E54854
:104270000078002832D0E4480068DD4988600020DA
:10428000E0490870E148007800280CD0E048006858
:10429000401CDF4908600846006814280FD300203E
:1042A000DA4908700BE0DA480068401ED849086017
:1042B00008460068002802D10120D4490870D4487B
:1042C0000068002802D10124640413E0D04800688B
:1042D0006421081A06214843441D0BE0CA480068BF
:1042E000C349C8600120C7490870C9480068062151
:1042F0004843441D00222146C648006802F038FCAD
:10430000054600BF2E46002E06D000BFBAA2FF21F0
:1043100039313046FFF778FF00BFF8BD70B5032094
:1043200000F072FC022000F06FFC012000F06CFC39
:10433000122000F069FC122000F066FC032000F05F
:104340006CFC022000F069FC012000F066FCB24A1F
:104350000021B04802F0C5FB044600BF2546002DF1
:1043600006D000BFA4A2FF2152312846FFF74CFF20
:1043700000BF0022A949A748006802F0F9FB0446E3
:1043800000BF2546002D06D000BF9BA2FF2155315E
:104390002846FFF739FF00BF70BD70B5A0B00446D6
:1043A000012C35D1042110915921684681869C4900
:1043B0000F91172101873C2111A803F008FA002072
:1043C0001190012110A8818110A914910DA81D90B0
:1043D000002111A801F055F9054600BF2E46002E18
:1043E00006D000BF84A2FF2173313046FFF70CFFD7
:1043F00000BF14218B4803F0EAF9032089490870B3
:10440000002048600872884808820020488247E0FF
:10441000002C3CD10521019184480068009084481B
:10442000817E684681703C2111A803F0D0F90220FA
:104430001190012110A84172818101A914913C21A0
:1044400002A803F0C4F901216846818469460A91F3
:1044500002A911A801F015F9054600BF2E46002E4D
:1044600006D000BF64A2FF2193313046FFF7CCFE97
:1044700000BF14216B4803F0AAF9002069490870B5
:1044800048600872684808821E20488208E000BF21
:1044900000BF00BF58A2FF21A0310020FFF7B4FEEB
:1044A00020B070BD70B55F4873DF044600BF25467D
:1044B000002D06D000BF50A2FF21AB312846FFF7E8
:1044C000A3FE00BF70BD70B53DDF044600BF2546AA
:1044D000002D06D000BF48A2FF21B3312846FFF7C8
:1044E00093FE00BF70BD0446112C04D1122000F0D1
:1044F00094FBFFF798FE102C04D1132000F08DFBE5
:10450000FFF791FE00BF00BF00BF3BA2FF21C631F5
:104510000020FFF779FE70B500BF464B464A0221E6
:10452000464801F04EFA044600BF2546002D06D04D
:1045300000BF31A2FF21D6312846FFF765FE00BF3C
:1045400000BF70BDF8B50E46144618223C480168FD
:104550003C4803F023F942203A490870002E04D069
:10456000012E0FD0022E1CD110E02078354948745E
:10457000617834488174A0783249C874E178314850
:1045800001750FE020782F4948750BE0002005E009
:10459000225C2C49491C0A54411CC8B21028F7DB84
:1045A00000E000BF00BF1821274803F065F805466A
:1045B00000BF2F46002F06D000BF0FA2FF21FD3104
:1045C0003846FFF721FE00BF002318221D491E4870
:1045D00002F096FF054600BF2F46002F06D000BF11
:1045E00005A20E4990393846FFF70EFE00BFF8BD10
:1045F00000050050EFBEADDE2E2E5C6D61696E2EA3
:104600006300000037200020182000203C200020FC
:10461000382000201C2000206B4201008F02000087
:10462000202000201C2100205105000028780100D6
:10463000F8200020254C01006606000040200020E4
:104640000420002030210020082000203EB500BFBB
:104650006846007801090901491C00916846007804
:10466000F02188431030009000BF0D22FEA1684663
:104670007CDF044600BF2546002D06D000BFFE4A61
:10468000212109012846FFF7BFFD00BF002001904E
:104690000290182168468180F021C18000210181AB
:1046A000FF219131418101A87ADF044600BF2546F0
:1046B000002D05D000BFF04AF0492846FFF7A4FDC1
:1046C00000BF3EBD7CB5EE480090EE4801906946C3
:1046D000ED4800F0D5FC044600BF2546002D06D06D
:1046E00000BFE54A4521C9002846FFF78DFD00BF00
:1046F0007CBD1E20E54908800846807840084000BF
:1047000088700846807802218843E049887008460E
:1047100080781C2188430C30DC49887008468078FA
:1047200020218843D94988700720C870102008715B
:10473000704770B505462868002810D13B21D44841
:10474000008876DF044600BF2646002E06D000BF54
:10475000C94ACA492F313046FFF756FD00BF70BD28
:10476000044600BFC44A952189002046FFF74CFD4E
:1047700030B587B01C21684603F029F8002000906E
:1047800005204004019080100290032168460173C7
:104790000021C1810174BF480590BF48069068465A
:1047A00002F003FB044600BF2546002D06D000BFE3
:1047B000B14AB24951312846FFF726FD00BF07B084
:1047C00030BDF8B504460026208814282CD006DC1D
:1047D00010280BD011280DD013283FD110E0172836
:1047E0001CD0192834D0522838D110E0A088A8490C
:1047F000088034E00020C043A5490880FFF713FD7E
:10480000A24A0021A24800887FDF064627E0002256
:1048100011469F480088A9DF064620E03222A11DEC
:104820009E4802F0BBFF1AE09C4DAD1D2988E0892F
:10483000814206D1002229469548008881DF06463C
:1048400005E0002211469248008881DF064606E016
:10485000A079002801D1FFF7E6FC00E000BF00BF0F
:1048600000BF3746002F06D000BF834A83498F31EF
:104870003846FFF7C9FC00BFF8BD10B50446204616
:10488000FFF79FFF204602F064FB21467E4800F0C0
:1048900083FA10BD70B500BF814B502281490820BA
:1048A00000F095FF054600BF2E46002E06D000BF43
:1048B000714A7249A9313046FFF7A6FC00BF00BF1C
:1048C000794800F0BAFF044600BF2546002D06D007
:1048D00000BF694A6949AD312846FFF795FC00BF22
:1048E000724800F0B3FF044600BF2546002D06D0F5
:1048F00000BF614A6149B1312846FFF785FC00BF1E
:1049000070BDF8B507461446069E00BF2546002D2B
:1049100006D000BF584A5B21C9002846FFF774FC47
:1049200000BFF8BD8AB00020099000BF604A0A218C
:10493000082001F03FFB054600BF2E46002E06D0A2
:1049400000BF4D4A4D49CC313046FFF75DFC00BFFA
:1049500000BF00BF0020574B04220321009002F04B
:1049600045F8054600BF2E46002E06D000BF424A3D
:104970004249CD313046FFF747FC00BF00BF00BFC2
:104980004D49022001F0A0F9054600BF2E46002E39
:1049900006D000BF384A5D21C9003046FFF734FC1D
:1049A00000BF00BFFFF7B7FDFFF7B8FC01F067F8E5
:1049B000044600BF2546002D06D000BF2E4A2F49D1
:1049C000D3312846FFF720FC00BF09A9112001F0D0
:1049D00077F8044600BF2546002D06D000BF264AC2
:1049E0002F2109012846FFF70FFC00BFFFF752FFF8
:1049F00002F05FFC044600BF2546002D06D000BF34
:104A00001D4A1E49DB312846FFF7FEFB00BF2B483D
:104A1000079018216846018401214184284907A88C
:104A200002F080FC044600BF2546002D06D000BFE2
:104A3000114ABF2189002846FFF7E6FB00BF204846
:104A400040682049086008460068007842287DD008
:104A500042216846017110220A49891C401D02F05A
:104A60009DFE002107482FE0426561636F6E204381
:104A70006F6E666967000000F84501001A020000C9
:104A80004545010020200020F820002010200020B3
:104A90001620002033470100614701004821002013
:104AA000FB4B01007C2100207B48010049420100B2
:104AB000CC2100207C220020742400200349010026
:104AC00008200020042000208174684641750321DD
:104AD0007048C17401A8817400216E480175684650
:104AE000C17501216B48417501A80175AC21694868
:104AF0008175684641761821674802F0BDFD04467D
:104B000000BF2546002D05D000BF644A64492846F1
:104B1000FFF77AFB00BF0023182201A95E4802F0CC
:104B2000EFFC044600BF2546002D06D000BF5B4ABF
:104B30005B49C91C2846FFF767FB00BF02F0F2FD86
:104B4000044600BF2546002D08D000E008E000BF65
:104B5000524A5349891D2846FFF756FB00BF1CE007
:104B6000102250480168491C4A48801C02F016FE79
:104B70004C480068407C474988744A480068807CFB
:104B8000C87448480068C07C087546480068007DC5
:104B9000487544480068407D887508A80079002859
:104BA00011D0FFF753FDFFF78DFD0020FFF7F5FB58
:104BB000FFF7DEFDFFF79DFD3B4800680621084337
:104BC0003949086008E00120FFF7E7FB3648006834
:104BD0000A21084334490860FFF764FC00BF01F074
:104BE000ABFAFFF770FCFAE7BFF34F8F2F4830495D
:104BF000C860BFF34F8F00BFFEE710B52D4A0021FC
:104C0000084601F0F8F910BD01210522120707231B
:104C10001B02D2188300D150704701218140264ADF
:104C2000916070477CB504460D4600946846057156
:104C3000224A082101F0DFF97CBD70B506460C461A
:104C400000BF002C01D1012000E000200546002D0E
:104C500004D100BF1AA29821FFF7D6FA00BF00F0D6
:104C600062FD70BDF8B504460D46264600BF082D0E
:104C700001D1012000E000200746002F04D100BF31
:104C80001DA29B21FFF7C0FA00BF30793168884729
:104C9000F8BD00002020002008200020F845010079
:104CA0000F03000004200020182000200400FA0553
:104CB00000ED00E03B4C010000050050654C010098
:104CC0002E2E5C2E2E5C2E2E5C2E2E5C2E2E5C4903
:104CD0006E636C7564655C73645F636F6D6D6F6E3E
:104CE0005C736F66746465766963655F68616E6442
:104CF0006C65722E680000002E2E5C2E2E5C2E2E0F
:104D00005C2E2E5C2E2E5C496E636C7564655C6156
:104D100070705F636F6D6D6F6E5C6170705F6275F8
:104D200074746F6E2E6800008A8882837047002238
:104D3000D2438283704770B505460E46B41D286A7B
:104D4000002800D170BD20886988884208D1208B56
:104D5000042805D122461A32002128462B6A98479A
:104D600020886989884208D1208B012805D12246F4
:104D70001A32012128462B6A98472088698A88427E
:104D800008D1208B102805D122461A32022128464C
:104D90002B6A984700BFD5E770B505460C462088BA
:104DA000102804D0112807D050280FD109E021463F
:104DB0002846FFF7B9FF0AE021462846FFF7B7FF6C
:104DC00005E021462846FFF7B6FF00E000BF00BF20
:104DD00070BD30B58FB004460D461C2108A802F006
:104DE000F6FC08A8007802218843811C08A80170FD
:104DF000007808218843411808A801700020099014
:104E00000B900C900D900E90A17E68468172BE4969
:104E100001810020019000BF684600790109090165
:104E2000491C684601710079F021884310306946B9
:104E3000087100BF00BF6846407901090901491C9B
:104E4000684641714079F0218843103069464871C5
:104E500000BF6846807906218843811C68468171BD
:104E60008079082188430146684681718079102144
:104E70008843014668468171807941084900684647
:104E80008171142103A802F0A2FC02A8039001A8DA
:104E900004900421684681820021C182042101839B
:104EA0006868123007902088A31C03AA08A9A2DF13
:104EB0000FB030BD30B58FB004460D461C2108A898
:104EC00002F085FC08A8007802218843811C08A80C
:104ED0000170007808218843411808A8017000205B
:104EE00009900B900C900D900E90A17E68468172F7
:104EF0008549491E01810020019000BF6846007964
:104F000001090901491C684601710079F0218843B3
:104F100010306946087100BF00BF6846407901093A
:104F20000901491C684641714079F02188431030DD
:104F30006946487100BF6846807906218843811C14
:104F400068468171807908218843014668468171ED
:104F50008079102188430146684681718079410833
:104F6000490068468171142103A802F030FC02A8B0
:104F7000039001A804900121684681820021C1822A
:104F800001210183686816300790208823460A3380
:104F900003AA08A9A2DF0FB030BD30B58FB0044618
:104FA0000D461C2108A802F012FC08A80078022176
:104FB0008843811C08A801700078082188434118A3
:104FC00008A80170002009900B900C900D900E9095
:104FD000A17E684681724C49891E018100200190A2
:104FE00000BF6846007901090901491C6846017142
:104FF0000079F021884310306946087100BF00BF76
:105000006846407901090901491C684641714079A7
:10501000F021884310306946487100BF68468079A6
:1050200006218843811C6846817180790821884364
:10503000014668468171807910218843014668469F
:10504000817180794108490068468171142103A863
:1050500002F0BDFB02A8039001A80490102168464D
:1050600081820021C182102101836868801C079021
:1050700020882346123303AA08A9A2DF0FB030BD4F
:1050800070B586B004460E460020C043A083306849
:1050900020621E4B0FCB01AD0FC521461A3101A86E
:1050A00062DF0546002D02D0284606B070BDA17E05
:1050B000684681751449C91E8182224605A90120CE
:1050C000A0DF0546002D01D02846EEE731462046F8
:1050D000FFF77FFE0546002D01D02846E5E7314663
:1050E0002046FFF7E7FE0546002D01D02846DCE705
:1050F00031462046FFF751FF0546002D01D02846D6
:10510000D3E70020D1E70000261500002C7801002D
:10511000F7B584B004460F4606980678B01C1F28E1
:1051200003DC2079801C1F2802DD0C2007B0F0BDB5
:105130001F20801B801E85B20295B11C781802A921
:105140007DDF03900398002801D00398EEE72068E4
:10515000022808D168460089A84204DC0920019091
:10516000684605890BE0082001902079002804D0CA
:105170002079A84201DC257901E068460589681C90
:10518000C2B23046711CCEB23A543046721CD6B20E
:105190000199395406980178A81C0818C1B20698DC
:1051A00001700020C2E7F8B505460C462078001DC6
:1051B0001F2801DD0C20F8BD684679DF0646002E69
:1051C00001D03046F7E703212278501C2070A95403
:1051D00019212278501C2070A95420784119684662
:1051E000008800F08BFA2178401820700020E2E758
:1051F000F8B505460F4616461C466868002801D1DA
:105200000720F8BD2078801C298840181F2801DD60
:105210000C20F6E72878401CC1B22278501C207080
:10522000B1542178481C207077542A882378981923
:10523000696802F0B3FA20782978401820700020BD
:10524000DFE730B503461078C01C1F2801DD0C20B5
:1052500030BD02241578681C10704C550A2415784E
:10526000681C10704C551578681C10704B55002048
:10527000EEE7FFB587B006461D46109C002006905D
:1052800020780590002747E0B900706841180A8827
:105290006846028149884181002203A902A864DF8F
:1052A00004900498002802D004980BB0F0BD684622
:1052B000017B099881422ED10698002801D0002058
:1052C00000E00220019020786946097B411801988E
:1052D00008181F2801DD0C20E7E70698002809D1EF
:1052E0002078401C20702278511C08982170A85406
:1052F000012006902078421903A902A864DF0490D7
:105300000498002801D00498CFE720786946097BEB
:105310004018207000BF7F1C3088B842B4DC06986B
:10532000002806D021780598401C081AC1B20598BB
:1053300029540020B9E7FFB581B0074615460A9EFB
:10534000009602223846049B0299FFF792FF04461A
:10535000002C02D0204605B0F0BD00961022294650
:105360003846049BFFF785FF0446002C01D02046F9
:10537000F1E70020EFE701460888062808DB0888E7
:105380001922D201904205DD0888E14A904201D0FD
:10539000072070474888062808DB48881922D20170
:1053A000904205DD4888DA4A904201D00720F0E7B4
:1053B0000888D74A904208D04888904205D008888B
:1053C0004A88904201DD0720E3E70020E1E7F8B5D5
:1053D00006460D4614462078801D1F2801D90C2052
:1053E000F8BD3046FFF7C7FF0746002F01D038460B
:1053F000F6E705212278501C2070A954122122784A
:10540000501C2070A95422785119308800F076F988
:1054100021784018207022785119708800F06EF9B8
:105420002178401820700020DAE7F8B505460E46CE
:1054300014462879801CC7B22078801CC0191F2808
:1054400001DD0C20F8BD781CC1B22278501C207000
:10545000B154FF212278501C2070B1542278911948
:10546000288800F04BF9217840182070A88800287F
:105470000EDDA868002801D10720E3E7AA88237879
:105480009819A96802F08AF92078297940182070C3
:105490000020D7E7FEB507460E461446786B002875
:1054A00001D10720FEBD0020019032E0796B0C2273
:1054B000019850430D182879801CC0B200900098C4
:1054C000401CC1B22278501C2070B15416212278A1
:1054D000501C2070B15422789119288800F00EF9E0
:1054E000217840182070A88800280EDDA8680028C0
:1054F00001D10720D6E7AA8823789819A96802F075
:105500004DF920782979401820700198401CC0B2CC
:1055100001903820C15D01988142C7DC0020C1E7BD
:10552000F8B504460F461646002500203070206866
:10553000002809D0324639462046FFF7E9FD0546E6
:10554000002D01D02846F8BD6079002808D03146EA
:105550003846FFF728FE0546002D01D02846F2E721
:10556000208900280BDD33463A46012120460830C9
:10557000FFF73EFE0546002D01D02846E3E72069EF
:1055800000280BD000202169085632463946FFF723
:1055900058FE0546002D01D02846D4E7A08A0028F1
:1055A0000CDD3B4606220221204614300096FFF710
:1055B000C2FE0546002D01D02846C4E7A08B002876
:1055C0000CDD3B460722032120461C300096FFF7E6
:1055D000B2FE0546002D01D02846B4E7A08C002875
:1055E0000CDD3B4615221421204624300096FFF79F
:1055F000A2FE0546002D01D02846A4E7E06A002857
:1056000009D032463946E06AFFF7E1FE0546002D33
:1056100001D0284697E7206B002809D0324639464A
:10562000206BFFF702FF0546002D01D028468AE7D0
:105630003820005D002809DD324639462046FFF754
:1056400029FF0546002D01D028467CE728467AE749
:1056500001460889002808D0C868002805D0C86815
:10566000007804221040002801D107207047002054
:10567000FCE701460889002801DD0720704700206B
:10568000FCE7F3B593B00D460021129111911398E8
:10569000002814D01398FFF7DBFF0446002C02D03B
:1056A000204615B0F0BD12AA09A91398FFF738FFDC
:1056B0000446002C01D02046F3E709AE00E00026A6
:1056C000002D13D02846FFF7D4FF0446002C01D04C
:1056D0002046E6E711AA01A92846FFF721FF044664
:1056E000002C01D02046DCE701AF00E0002710A825
:1056F00003793A46017A304672DFD2E702460A70F1
:10570000FF20000210400012487002207047000085
:10571000FFFF000070B506460C4615462946204698
:10572000FEF77AFD70BDF8B55A480078002800D120
:10573000F8BD59480068002801D1012000E0002090
:10574000054656480068002801D1012000E00020ED
:10575000064600BF002D14D168464EDF0446052CD6
:1057600001D101250CE0002C06D000BF4CA269211C
:105770002046FEF749FD03E047490098096888473D
:1057800000BF002E1AD15448008800906946534843
:10579000006860DF0446052C01D101260DE0002CD5
:1057A00006D000BF3EA280212046FEF72DFD04E07A
:1057B0004A48006839490968884700BF002D02D06F
:1057C000002E00D000E0C5E700BF00BFB0E7FFB586
:1057D00081B00C4616461F46002C02D1072005B0AA
:1057E000F0BD20468107890F002901D1012100E089
:1057F0000021002901D10720F1E73848046036482C
:105800000680374807603749019810DF0546002DAC
:1058100001D02846E3E701201E490870162023DF47
:10582000DDE710B511DF0446002C01D0012000E0B7
:10583000002018490870204610BD0146002901D1FA
:105840000E207047154801600020FAE70146002944
:1058500001D10E207047104801600020FAE770B5B2
:105860001F480068002811D01D4800688047044682
:1058700000BF2546002D07D000BF09A2FF2133310C
:105880002846FEF7C1FC00BF00BF01E0FFF74BFF59
:1058900070BD0000622000206820002064200020ED
:1058A0002E2E5C2E2E5C2E2E5C2E2E5C2E2E5C530D
:1058B0006F757263655C73645F636F6D6D6F6E5C53
:1058C000736F66746465766963655F68616E646C46
:1058D00065722E6300000000602000205C20002024
:1058E000582000201557010070B504468C48006808
:1058F000002812D021788A4AA0681268904705468D
:1059000000BF2E46002E06D000BF86A229213046B9
:10591000FEF77AFC00BF00BF02E02078A16888474C
:1059200070BDF1B582B00027029C694689480078B5
:1059300000F0DBFA01900198002800D0FEBD8649F6
:105940000098096808400746844800680099884321
:105950000743204638400446002C19D0002512E0A9
:105960000C2068437E490968461831780120884038
:105970002040002805D0B068002802D03046FFF74C
:10598000B3FF681CC5B2774800788542E8DB00BFEA
:1059900000BFD3E770B504460D467348006801F0B8
:1059A00018F90646002E00D070BD20462843024656
:1059B0006E4801686C48006801F0DAF8064600BFDE
:1059C000F2E7FFB583B005460C461646052E02D217
:1059D000072007B0F0BD6248056062480470634864
:1059E00006604F490698086000205B4908605B49E3
:1059F00008602CE00C21614348190278019241684B
:105A00000291029989000522120707231B02D3186D
:105A1000019A9200995000BF4178002901D00121DC
:105A200000E00021027891404B4A126811434A4A33
:105A300011604178002901D1012100E000210278A4
:105A40009140464A12681143444A116000BF204603
:105A5000611ECCB20028CDD1454B404802683E487B
:105A600001683C4800F06AF90746002F01D038462B
:105A7000AFE7404A00213C4801F033F8A9E710B5F0
:105A800037480068002801D1082010BD314800784F
:105A900000F099F9F9E710B531480068002801D104
:105AA000082010BD2B48007800F0FEF90446002CB9
:105AB00001D02046F5E72C48006801F08AF8F0E7AD
:105AC000F8B507460C46002625480068002801D195
:105AD0000820F8BD69461F48007800F006FA054620
:105AE000002D01D02846F4E70120B8400646009872
:105AF0003040002809D1194800683040002801D002
:105B0000012000E00020207008E0134800683040C9
:105B1000002801D0012000E0002020700020D8E7FC
:105B2000802000202E2E5C2E2E5C2E2E5C2E2E5CD5
:105B30002E2E5C536F757263655C6170705F636F6E
:105B40006D6D6F6E5C6170705F627574746F6E2ED8
:105B500063000000842000207820002074200020B2
:105B60006C20002070200020882000207C20002055
:105B70009559010023590100F0B502460C4600205A
:105B800037E001238340194623460B40002B2FD0DA
:105B9000D5680D40002D05D101235B04D5680D4368
:105BA000D56004E003231B04D5688D43D56005252B
:105BB0002D0707263602AD198600AD590326360497
:105BC000B5430526360707273F02F6198700F5512A
:105BD00005252D0707263602AD198600AD591D4350
:105BE0000526360707273F02F6198700F55100BF43
:105BF000401C2028C5D3F0BDFEB5E448066900204E
:105C0000E349C863002529E014206843E149096895
:105C100044180120A840E0490968084000281BD02A
:105C2000E068C04370402168084007463946204676
:105C3000FFF7A2FFA068B043384000906068304092
:105C400038400190009901980843002803D0226948
:105C500000990198904700BF681CC5B2CF480078F2
:105C60008542D1DBFEBD10B50146002029E014229B
:105C70004A43C84B1B689A58012383401A40002AA4
:105C80001ED00522120707231B02D2188300D25808
:105C900003231B049A4305231B07072424021B1913
:105CA00084001A510522120707231B02D218830011
:105CB000D25805231B07072424021B1984001A51FC
:105CC000401C2028D3D310BD70B505460C46002CCF
:105CD00001D1072070BD20468107890F002901D11D
:105CE000012100E00021002901D10720F2E7A948A5
:105CF0000460AB4805700020A8490870A6490860F8
:105D0000A7480078142250430146A248006801F0D9
:105D10005EFD0020C043A349886006200121814028
:105D2000A14A116000BF012100F0F9F8062001210D
:105D300081409E4A116000BF0020CBE7F8B50446C1
:105D40000D4616461F4693480068002801D10820DA
:105D5000F8BD002F01D10720FAE79048007890495C
:105D60000978884201DB0420F2E7284630438B495A
:105D7000097814225143874A1268505087480078A6
:105D800014214843834909684018456083480078D6
:105D9000142148437F490968401886607F4800788D
:105DA000142148437B490968401807617B48007803
:105DB00020707A480078401C784908702078FFF7F6
:105DC00052FF0020C4E7F0B5024672480068002880
:105DD00001D10820F0BD71480078824201DB072024
:105DE000F8E700206A4BD863684804696A4800688D
:105DF000002802D158066B4B586001209040664B3A
:105E00001B681843644B1860002314205043614DF5
:105E10002D684019C360002142E001238B401846E1
:105E2000142353435B4D2D68EB580340002B36D0B1
:105E300025460540002D02D003231B040EE001235C
:105E40005B0414255543534E3668AD19ED68054380
:105E5000142656434F4F3F68F619F56005252D0768
:105E600007263602AD198E00AD5903263604B54318
:105E70000526360707273F02F6198F00F55105253D
:105E80002D0707263602AD198E00AD591D43052694
:105E9000360707273F02F6198F00F55100BF491C4E
:105EA0002029BAD3002095E710B504463948006888
:105EB000002801D1082010BD38480078844201DB59
:105EC0000720F8E72046FFF7CEFE0120A040324928
:105ED00009688143304801600068002803D101202F
:105EE000C007304988600020E5E710B50246294820
:105EF0000068002801D1082010BD2848007882429F
:105F000001DB0720F8E714205043224C24680319D2
:105F10001E4800691C68204008600020ECE710B5AE
:105F2000002819DA224A03071B0F083B9B089B0035
:105F3000D2588307DC0EFF23A3409A438B071B0E26
:105F40008407E40EA3401A43194B0407240F083CAE
:105F5000A408A4001A5118E0144A03231B02D21803
:105F600083089B00D2588307DC0EFF23A3409A438B
:105F70008B071B0E8407E40EA3401A430B4B03242C
:105F800024021B198408A4001A5110BD00050050FA
:105F900040610040942000208C20002091200020AF
:105FA000902000200063004080E200E000E100E07B
:105FB0001CED00E030B50346481CC004040C10463C
:105FC0008507AD0F002D01D1012500E00025002D32
:105FD00001D1072030BD7A4802601019794D286040
:105FE0000020794D2870794D2870794803807948D0
:105FF00001800020EEE7F7B584B00C4674480088B5
:1060000084426BDC744D0020039000F0A4F80290F1
:106010000298012814D003A82BDF0746022F01D1D4
:1060200072B60CE000BF0197019F002F06D000BFA1
:106030006AA259210198FEF7E7F800BF00BF00BF30
:106040006148007800F0B1F860490978884206D0CC
:106050005D480578007800F0A8F85B490870029860
:10606000012814D062B66846007B2CDF0746022F59
:106070000CD000BF0197019F002F06D000BF57A290
:1060800061210198FEF7C0F800BF00BF00BF524871
:10609000854221D0E9004A4A069812685050049877
:1060A000002811D0002C0FDD494909886943454A71
:1060B000126888182246049901F070FBE8004049F4
:1060C00009684018848005E00020E9003C4A126815
:1060D00089188880002600E0042600E00926304662
:1060E00007B0F0BDF8B505460E46174605200090EE
:1060F000354800783549097888421BD03348047800
:10610000007800F052F83149087031480088604347
:106110002C49096840182860E0002949096840189E
:1061200080883080E00026490968085838600020DF
:10613000009000BF0098F8BD0EB504E06846818865
:10614000009A029890476A4601A902A8FFF7CAFF81
:106150000028F3D00EBD10B52D484068C105C90D0B
:10616000002920D00A46103A104600280DDA284BA4
:106170001C330407240F083CA408A4001B598407FF
:10618000E40EE3401B069B0F0BE0224B032424028A
:106190001B198408A4001B598407E40EE3401B0666
:1061A0009B0FD8B210BD0420FCE7014609480088C7
:1061B000814201DA481C00E00020C0B270470000B4
:1061C000982000209C200020A1200020A02000205A
:1061D000A2200020A4200020FFFF00002E2E5C2E15
:1061E0002E5C2E2E5C2E2E5C2E2E5C536F757263F1
:1061F000655C6170705F636F6D6D6F6E5C61707018
:106200005F7363686564756C65722E6300000000DF
:1062100000ED00E000E100E010B5002819DAFA4ACC
:1062200003071B0F083B9B089B00D2588307DC0E1B
:10623000FF23A3409A438B071B0E8407E40EA34061
:106240001A43F14B0407240F083CA408A4001A5178
:1062500018E0EE4A03231B02D21883089B00D25891
:106260008307DC0EFF23A3409A438B071B0E840792
:10627000E40EA3401A43E54B032424021B198408AF
:10628000A4001A5110BD10B50446E14884600321F2
:106290001120FFF7C1FF10BD10B501200004DD493A
:1062A0004860DC4940394860112000F0DDFC1120D5
:1062B00000F0CCFC0120D84908602F20FDF70AFF30
:1062C00010BD10B5112001218140D04A80321160EB
:1062D00000BF01200004CF498860CE494039886062
:1062E0000120CD4948602F20FDF7F4FE10BDF0B528
:1062F000024628205043C94B1B68C118C848006893
:10630000401C002802D1C648026059E0C4488B688E
:10631000006828246043C14C2468001980688342C7
:1063200017D8BF48006828235843BC4B1B68C018C7
:1063300080688B68C31ABA48006828246043B74C49
:10634000246800198360B64800684862B448026057
:1063500036E08B68B24D2C6828680DE0282545434F
:10636000AE4E3668AD19AD685B1B04462825454323
:10637000AA4E3668AD19686A451C002D07D028253D
:106380004543A64E3668AD19AD689D42E6D3451C1F
:10639000002D0CD028254543A04E3668AD19AD68B8
:1063A000EE1A282545439D4F3F68ED19AE608B607E
:1063B000486228256543994E3668AD196A6200BF68
:1063C000F0BD70B50246964C2168084609E090423F
:1063D00000D109E0014628244443904D2D686419FA
:1063E000606A441C002CF2D100BF441C002C00D178
:1063F00070BD814209D18A4C246828256C43874DA1
:106400002D686419646A864D2C6028244443834DAA
:106410002D686419A36828244443804D2D686419AD
:10642000656A28244C437D4E3668A4196562282489
:106430004C437A4D2D686419606A441C002C0CD0C2
:1064400028244443754D2D686419A468E518282450
:106450004443724E3668A419A56000BFC8E710B562
:10646000112000F0FAFB10BD10B5142000F0F5FB70
:1064700010BD70B504466B480068002813D0694A07
:10648000216AE06912689047054600BF2E46002E3B
:1064900007D000BF64A2FF2155313046FDF7B4FE9E
:1064A00000BF00BF02E0E169206A884770BDF8B50F
:1064B0005B480068401C00283AD0002700F006FC2A
:1064C000044665480168204600F003FC064654482F
:1064D000056811E028206843504909684418A068FD
:1064E000B04200D90BE0A068361AA068C719656AE7
:1064F0002046FFF7BEFF00BF681C0028EAD100BF9E
:106500005648007856490978884209D1544800789D
:10651000401CC0B252490870022801D10020087006
:106520004F48007880004F490F50FFF79DFF00BF94
:10653000F8BD014649480078494A127890421DD07A
:1065400046480078401C454A1070104600780228E2
:1065500001D100201070414800788000414A105855
:1065600008603D4A0868126880183B4A106010466F
:1065700000680002000A10600120704700200860D7
:1065800000BFFAE7FEB5264800680190364800785B
:10659000009074E00098C0003449096844182578D8
:1065A00069E01820684361680F18681CC5B2A078BC
:1065B000A84200D100253868022802D0032857D10C
:1065C0000EE0282178684843144909684618307E4F
:1065D000002804D07868FFF7F4FE0020307648E009
:1065E0000CE00F490968282251430C4A12688818A8
:1065F000002101760A4A416A116000BF084800681C
:10660000401C0028EDD134E01CED00E000E100E08A
:10661000001501404013014000100140AC20002053
:10662000B8200020CC2000202E2E5C2E2E5C2E2E9A
:106630005C2E2E5C2E2E5C536F757263655C6170F0
:10664000705F636F6D6D6F6E5C6170705F74696DAC
:1066500065722E6300000000BC200020C8200020CE
:10666000C9200020C0200020B0200020B42000203D
:1066700000BF00BF00BF6078A84292D100BF009861
:10668000411EC9B20091002884D1FE4801680198DA
:10669000814201D00120FEBD0020FCE7F0B5034699
:1066A000002426E0F74E366828277E43F64F3F68E1
:1066B000F01986689E4203D98668F61A86601DE046
:1066C00086689B1B86683419002686600676ED4E28
:1066D0003568EC4F466A3E604669002E08D00E19B8
:1066E0003602360AC660466906611668466215605B
:1066F00000BFE4480068401C0028D3D100BFF0BDB3
:10670000FEB50746DF4800680290E0480078019037
:106710006BE00198C000DE49096845185DE0781C0F
:10672000002807D03E4628207043D74909684418FE
:10673000676A23E02978182359436A685018297832
:10674000491C29702978AA78914201D10021297029
:10675000466828217143CC4A12688C1801680129C7
:1067600002D1217E002900D037E08168E160C16854
:106770002161016961614169216200BFC549E06829
:106780000968401A0002000AC349884208D2C14978
:10679000E068096800F09DFA21694018A06011E0E6
:1067A000BC48E168006800F094FA00902169009804
:1067B000814204D921690098081AA06001E00020F4
:1067C000A06000BF0020E060206101202076801ED4
:1067D00060623046FFF78BFD00BF781C00289ED119
:1067E0002878697888429AD100BF0198411EC9B2C1
:1067F000019100288DD1A34801680298814201D0FF
:106800000120FEBD0020FCE7FEB505469D4800685E
:10681000401C002835D09B480068282148439A49ED
:1068200009684018866800F051FA02909948046897
:106830002146029800F04DFAC01C0190681C002807
:1068400001D1FFF729FD0198B04201D2304600E0A6
:10685000019804192402240A20469049086000BFC8
:1068600000F034FA00900299009800F032FAC71C48
:106870002046029900F02DFA874201D9FFF7EFFD7B
:1068800001E0FFF71EFDFEBDFEB50020C0430190F4
:10689000804804687B4807686846FFF74AFE05465B
:1068A000FFF770FE0646002D05D001AA214600988C
:1068B000FFF7F4FE01260198FFF722FF002800D021
:1068C0000126002E02D03846FFF79EFFFEBD417024
:1068D000704770B502460B465078411C907888424C
:1068E00000D100211078884201D1002070BD1960CC
:1068F00050781826704355682C182046F6E7FFB5E7
:1069000081B005460E461746E900614A12688818AC
:106910006946FFF7DEFF0446002C02D1042005B0D3
:10692000F0BD01202060666000F0D0F9A060E76053
:10693000049820610A986061E900554A1268881835
:106940000099FFF7C4FFFFF78FFD0020E7E7F8B5D8
:1069500004460E46E1004E4A126888186946FFF761
:10696000B8FF0546002D01D10420F8BD02202860A3
:106970006E60E100464A126888180099FFF7A7FF89
:10698000FFF772FD0020F0E738B50446E100404A09
:10699000126888186946FFF79CFF0546002D01D153
:1069A000042038BD03202860001F6860E100384AD9
:1069B000126888180099FFF78AFFFFF755FD00203D
:1069C000EFE710B5002036490860002134484160E7
:1069D0008160C16000203249403908604860FFF79B
:1069E00066FD10BD10B5FFF74FFF10BDFFB581B0BC
:1069F0000E4617461C4620468107890F002901D103
:106A0000012100E00021002902D1072005B0F0BDDE
:106A1000002C01D10720F9E7FFF753FC21490A9820
:106A20000860214806701848046000250CE0002129
:106A300028206843144A1268115028206843124ADB
:106A40001268801801766D1CB542F0DB2820704377
:106A5000041903200D4908700D48046018340025FE
:106A60000CE0E9000A4A12688818002101704170A0
:106A700087704460182179430C196D1C032DF0DBDD
:106A8000002013E0B8200020AC200020B02000201F
:106A9000B4200020BC200020FFFF7F0040150140F3
:106AA00040110140CC200020A8200020C0438B4989
:106AB000086000208A4908708A490870142000F094
:106AC000D3F803211420FFF7A7FB142000F0BEF831
:106AD0000198FFF7D8FB00F0F9F88349086000201F
:106AE00094E770B503460C4680480068002801D141
:106AF000082070BD002A01D10720FAE7002B01D140
:106B00000720F6E700211CE028204843774D2D6838
:106B10002858002814D1012528204843734E366890
:106B2000355028204843714D2D6840194460282075
:106B300048436E4D2D684019C26119600020D8E7A6
:106B4000491C6B4800788142DEDB0420D1E710B598
:106B500000F092F8012802D0032804D101E00024BB
:106B600003E0012401E0022400BF00BF204610BD65
:106B7000FEB504460D4616465C480068002801D163
:106B80000820FEBD5A480078844201D2052D01D26A
:106B90000720F6E72820604354490968085801286F
:106BA00001D00820EDE728206043504909684018CB
:106BB0004068012801D1284600E000200746FFF781
:106BC000C6FF3B462A46214600960190FFF797FEF6
:106BD000D7E770B5044645480068002801D1082071
:106BE00070BD43480078844201D30720F8E728208D
:106BF00060433E4909680858012801D00820EFE7A2
:106C0000FFF7A5FF05462146FFF7A1FEE8E710B50F
:106C100036480068002801D1082010BDFFF797FF13
:106C20000446FFF7B1FEF8E710B5044600F04EF851
:106C30002060002010BD70B505460E461446314652
:106C4000284600F046F82060002070BDC206D20E33
:106C500001219140274A11607047C206D20E0121DE
:106C60009140254A11607047C206D20E0121914021
:106C7000214A80321160704710B520484068C10534
:106C8000C90D002920D00A46103A104600280DDA16
:106C90001A4B1C330407240F083CA408A4001B59FA
:106CA0008407E40EE3401B069B0F0BE0114B03240B
:106CB00024021B198408A4001B598407E40EE34036
:106CC0001B069B0FD8B210BD0420FCE70C4840689F
:106CD00070470246501A0002000A7047B820002090
:106CE000C8200020C9200020BC200020AC200020AB
:106CF000A820002000E100E000E200E000ED00E05C
:106D00000015014001464888B74A1288904206DBC8
:106D10004888B54A5288904201DC01207047002023
:106D2000FCE738B50546B1480088B14988423BD0F8
:106D3000B0480078401CAF490870AF48007B097824
:106D400088420FDBA849A948008875DF0446002C5B
:106D500007D0A9488069002803D0A7488169204648
:106D6000884721E00020A3490870A348007C002840
:106D70000FD03B219D48008876DF0446002C07D0C9
:106D80009D488069002803D09B4881692046884738
:106D900000BF99484069002806D00020009096481E
:106DA00041696846884700BF38BD70B505461C225A
:106DB0002946914800F0F2FC0020904908702868AC
:106DC00000280BD008228848296800F0E7FC864894
:106DD0007ADF0446002C08D0204670BD82487BDF55
:106DE0000446002C01D02046F7E70020C0437F492D
:106DF000088000207F490870814A00218148FFF700
:106E000070FEEAE710B57F480068FFF7E2FE10BDAC
:106E100038B57D48FFF776FF002829D177480078FC
:106E200000280AD074484069002820D00020009033
:106E3000714841696846884719E06E480078002823
:106E400002D16D48456801E06B48856800222946FB
:106E50006C480068FFF78CFE0446002C07D066489B
:106E60008069002803D064488169204688470AE089
:106E700061484069002806D0012000905E484169C1
:106E80006846884700BF00205C49087038BD10B5CF
:106E90000446A08855490880082221460E315A48E8
:106EA00000F07CFC0020534908705348C08900283A
:106EB00001D1FFF7ADFF10BD70B505460020C043FE
:106EC0004A49088000204B4908704E480068FFF787
:106ED00080FE0446002C07D047488069002803D074
:106EE000454881692046884770BD70B50546AC1D90
:106EF00020884149C989884220D1208B02281DD190
:106F000000BF00BFA17EE27E120211430846C10706
:106F1000C90F002902D0FFF77BFF0FE03948006856
:106F2000FFF757FE0646002E07D033488069002839
:106F300003D0314881693046884700BF70BD10B525
:106F400004460822A11D304800F028FCFFF760FF2E
:106F500010BD10B504462088102806D0112808D08E
:106F600012280ED0502810D107E02046FFF78FFFDF
:106F70000CE02046FFF7A0FF08E02046FFF7B5FF32
:106F800004E02046FFF7DBFF00E000BF00BF10BDBC
:106F900038B5044608222146134800F0FFFB12488A
:106FA0007ADF0546002D1CD11748FFF7ABFE0028FD
:106FB0000BD10120114908700B490C48008875DF7E
:106FC000054601200B4908700BE00B48406900287A
:106FD00006D001200090084841696846884700BFF4
:106FE0000025284638BD0000D0200020DA200020EF
:106FF000FFFF0000D82000209C240020E820002073
:10700000236D0100E4200020DC2000200023142157
:107010004143FE4A53541421414389184B800223B3
:107020001421414389188B6000231421414389189E
:10703000CB601421414389180B6114214143891805
:107040008B80704710B50020F1490880EF49091F77
:10705000087048708870002403E02046FFF7D6FFD0
:10706000641C1E2CF9D310BDFEB50F26E748001F87
:10707000007814214843E5494418E06801902078DD
:1070800004280CD18006006981B2019800F070FBE1
:10709000DF4909884518284650DF064622E0207857
:1070A00002281FD12769DA48008885027F19A08845
:1070B00041190198081801906088401B0090012137
:1070C00089020098884206D20098820839460198C1
:1070D00051DF064605E0FF2201323946019851DFB3
:1070E000064600BF002E03D10120C849091F887041
:1070F0003046FEBDFFB581B0064617460024042584
:10710000C248001F40781E283AD0C048001F0078AF
:10711000BE49091F49784018C4B21E2C02DB204624
:107120001E38C4B214206043B8490E541420604382
:1071300040180761142060434118029805C8CA60CE
:10714000886014206043B14A80180499418014215A
:10715000614389180A9888800025101F80780028CC
:1071600007D1FFF781FF0546002D01D0112D00D179
:107170000025A648001F4078401CA449091F4870FC
:10718000284605B0F0BDF8B50446A048001F0078B9
:10719000142148439D490D5C081F00781421484381
:1071A0009A494018806800019A490E58042D01D16F
:1071B000002007E09548001F0078142148439349B8
:1071C000401840889149091F0090097814225143C2
:1071D0008E4A89180B69111F0978142251438B4A72
:1071E00089180846083022462946B047F8BDF8B548
:1071F000054600268548001F8078012858D10020C8
:107200008249091F8870022D02D0032D4DD148E01C
:107210007E48001F0078142148437C4947187C4869
:107220000088401C7A4908800846008880027988D6
:1072300088421DDB3046FFF7A6FF7449091F087816
:10724000FFF7E4FE0020724908807048001F407874
:10725000401E6E49091F487008460078401C08709F
:10726000084600781E2803DB084600781E380870A0
:1072700000BF00246548001F4078002809D0FFF7B0
:10728000F3FE0446002C04D0112C02D02046FFF758
:107290007AFF00BF2646002E02D03046FFF773FF6C
:1072A00004E00D20FFF76FFF00E000BF00BF00BF4C
:1072B000F8BD10B5FFF7C6FE0020574908805748B3
:1072C0004069401C002808D001221207126991B2BF
:1072D000524A506900F04CFA02E001200007406970
:1072E000801E01210907096989B248434C49086099
:1072F00000204749088000BF0DE000210201454BF6
:1073000099500201D21811810201D2189181020113
:10731000D2185181401C0228EFD301204149087046
:10732000002010BDF8B504460D4600BF3D4800786A
:10733000002801D10820F8BD00BF002C01D10E208B
:10734000F9E7002D01D10E20F5E72068002801D1D2
:107350000E20F0E7A08801210907096989B2884257
:1073600002DCA088102801DA0720E4E7E088002882
:107370001DD02A484069401C002808D0012212076D
:10738000126991B2254A506900F0F2F902E0012039
:107390000007406901210907096989B24843E1886A
:1073A000A28851431E4A12688918884201D20720D8
:1073B000C1E719480088022801D10420BBE716481C
:1073C0000088286016480068686013490988090128
:1073D000104A8918686848600F49098809012068BF
:1073E0005050A0880C490988090189180881E08853
:1073F000094909880901891848810027A688E18878
:107400004E4300BF781C87B201200DE0BC24002051
:10741000F420002014270020EC2000200010001091
:10742000F0200020F62000200007006980B2B04262
:1074300005D201200007006980B2361A00E000265C
:1074400001200007006980B2C44909684018C34997
:10745000086001200007006980B2B042D2D9C0485C
:1074600000880001BF4940188781BD480088401C42
:10747000BB49088000205EE73CB5034600BFBA4820
:107480000078002801D108203CBD00BF002B01D1AD
:107490000E20F9E7002A01D10E20F5E7186802282E
:1074A00005D218680001AF4C2058002801D10720F0
:1074B000EAE75C68186801940090019C1868000174
:1074C000A84D4019008948432018019000980001F8
:1074D0002C4600194089009C2401641924896043CA
:1074E000009C2401641964680019019CA04201D821
:1074F0000720C9E7019C0098546010600020C3E792
:10750000F8B504460D4616461F4600BF964800785B
:10751000002801D10820F8BD00BF002D01D10E20A8
:10752000F9E7002C01D10E20F5E72068022805D2EA
:10753000206800018B490858002801D10720EAE79C
:107540002068000187494018408921680901854A5F
:107550008918098948432168090189184968401830
:107560006168884201D80720D5E7002E06D0206840
:1075700000017C4940180089B04201DA0720CAE7BF
:10758000F01921680901774A89180989884201DDC3
:107590000720C0E7284600F0D8F8002804D0E819F2
:1075A00000F0D3F8002801D11020B4E733462A4672
:1075B000214602200097FFF79DFDACE7F8B507468E
:1075C0000C4615461E4600BF67480078002801D1CA
:1075D0000820F8BD00BF002C01D10E20F9E7002FD4
:1075E00001D10E20F5E72068022805D220680001AD
:1075F0005C490858002801D10720EAE7206800010B
:1076000058494018408921680901564A8918098952
:10761000484321680901891849684018616888420F
:1076200001D80720D5E7002D06D0206800014D497C
:1076300040180089A84201DA0720CAE7A819216882
:107640000901484A89180989884201DD0720C0E7F5
:10765000384600F07AF8002804D0B81900F075F820
:10766000002801D11020B4E7606881192A46384605
:1076700000F094F80020ACE7F8B504460F4600BFD0
:1076800039480078002801D10820F8BD00BF002C3F
:1076900001D10E20F9E72068022805D220680001F8
:1076A00030490858002801D10720EEE72068000182
:1076B0002C4940184089216809012A4A89180989FA
:1076C000484321680901891849684018616888425F
:1076D00001D80720D9E7206800012249401886898F
:1076E00001210907096989B24E430020B3B202465D
:1076F000214600900420FFF7FDFC05462846C4E71C
:10770000014600BF18480078002801D108207047C2
:1077100000BF002901D10E20F9E714484078086025
:107720000020F4E738B50120009000BFFEF704FD0B
:107730006846FFF7E5FF0446002C01D0204638BD1F
:1077400000980028F2D100BFF9E701468807800FB2
:10775000002801D1012070470020FCE7F020002024
:10776000EC20002014270020F6200020B824002060
:1077700030B50B46014600202022012409E00D46C9
:10778000D5409D4205D31D469540491B2546954051
:1077900040191546521E002DF1DC30BD03460B4347
:1077A0009B0703D009E008C9121F08C0042AFAD2B7
:1077B00003E00B780370401C491C521EF9D270473D
:1077C000D2B201E00270401C491EFBD27047002279
:1077D000F6E710B513460A4604461946FFF7F0FFD0
:1077E000204610BD064C0125064E05E0E36807CC97
:1077F0002B430C3C98471034B442F7D3FCF764FC9D
:107800003C7801005C78010002E008C8121F08C142
:10781000002AFAD170477047002001E001C1121F11
:10782000002AFBD17047000023150000ADE8F3D417
:10783000B88494A0AAF5E20F00005A955C78010084
:1078400000200020F80000000878010054790100B1
:10785000F8200020400E0000187801000024F400F9
:107860000000000000000000000000000000000018
:107870000000FFFF0000000000000000021550DCC7
:10788000B6F6915A4142A6FEFDA7B441860901020F
:107890000304AC0000000000010000001100000023
:1078A00003000000E7440100100000000300000096
:1078B000E74401000000000000000000000000009C
:1078C00000000000000000000000000000000000B8
:1078D00000000000000000000000000000000000A8
:1078E0000000000000000000000000000000000098
:1078F0000000000000000000000000000000000088
:107900000000000000000000000000000000000077
:107910000000000000000000000000000000000067
:107920000000000000000000000000000000000057
:107930000000000000000000000000000000000047
:107940000000000000000000000000000000000037
:047950000000000033
:04000005000140C1F5
:00000001FF
